:100000000C9446000C9465000C9465000C946500FB
:100010000C9465000C9465000C9465000C946500CC
:100020000C9465000C9465000C9465000C946500BC
:100030000C9465000C94DE000C9465000C94650033
:100040000C9465000C9465000C9465000C9465009C
:100050000C9465000C9465000C9465000C9465008C
:100060000C9465000C9465000C9465000C9465007C
:100070000C9465000C9465000C9465000C9465006C
:100080000C9465000C9465000C94650011241FBE4F
:10009000CFEFD0E4DEBFCDBF11E0A0E0B1E0EEEBEA
:1000A000F6E000E00BBF02C007900D92A231B1074D
:1000B000D9F721E0A2E1B1E001C01D92A232B2075E
:1000C000E1F70E9457020C945D030C940000CF935B
:1000D000DF9300D01F92CDB7DEB789837B836A831D
:1000E00089818A3031F48A819B81BC018DE00E9434
:1000F000670080EC90E0FC018081882F90E08072A6
:100100009927892BB1F386EC90E02981FC012083AB
:1001100080E090E00F900F900F90DF91CF910895C5
:10012000CF93DF93CDB7DEB781E890E02BE0FC0101
:10013000208388E890E02DE730E0FC0131832083C4
:100140008FE690E022E0FC01208384E890E0FC014F
:100150001182108280910E0190910F01A0911001E7
:10016000B09111018093130190931401A093150194
:10017000B09316018FE590E02FE530E0F901208182
:100180002068FC0120830000DF91CF910895CF9378
:10019000DF93CDB7DEB781E890E0FC01108200006C
:1001A000DF91CF910895CF93DF93CDB7DEB781E094
:1001B000809312010000DF91CF9108951F920F925A
:1001C00000905F000F92112400905B000F922F931C
:1001D0003F934F935F936F937F938F939F93AF93CF
:1001E000BF93EF93FF93CF93DF93CDB7DEB78091AB
:1001F000130190911401A0911501B091160101977E
:10020000A109B1098093130190931401A0931501E2
:10021000B09316018091130190911401A0911501E2
:10022000B0911601892B8A2B8B2B91F40E94D3005D
:1002300080910E0190910F01A0911001B0911101D8
:100240008093130190931401A0931501B0931601AC
:100250000000DF91CF91FF91EF91BF91AF919F91FE
:100260008F917F916F915F914F913F912F910F905F
:1002700000925B000F9000925F000F901F90189506
:10028000CF93DF9300D000D0CDB7DEB769837A83F8
:100290008B839C8389819A81AB81BC8180930E0181
:1002A00090930F01A0931001B093110180910E0162
:1002B00090910F01A0911001B09111018093130151
:1002C00090931401A0931501B093160100000F90B4
:1002D0000F900F900F90DF91CF910895CF93DF9300
:1002E000CDB7DEB780912001909121018130910539
:1002F00069F08130910518F0029779F013C081E020
:1003000090E090932101809320010CC082E090E066
:10031000909321018093200105C010922101109239
:1003200020010000809120019091210181309105F0
:1003300051F08130910518F0029749F00CC081E02E
:100340008093170108C082E08093170104C084E005
:100350008093170100000000DF91CF910895CF93A3
:10036000DF93CDB7DEB780911E0190911F010097FA
:1003700019F0019741F00CC081E090E090931F01CB
:1003800080931E0105C010921F0110921E010000F3
:1003900080911E0190911F01009719F0019729F09B
:1003A00007C088E08093180103C010921801000074
:1003B0000000DF91CF910895CF93DF93CDB7DEB7E3
:1003C00080911C0190911D01892B09F005C01092AC
:1003D0001D0110921C01000080911C0190911D01D3
:1003E000892B09F00DC085E290E030911801209131
:1003F0001701320F20911901230FFC012083000007
:100400000000DF91CF910895CF93DF931F92CDB776
:10041000DEB780E290E0FC01808180958470898362
:1004200080911A0190911B018130910531F081304A
:10043000910590F00297B9F01DC08981843029F4AC
:1004400010921B0110921A0115C081E090E0909368
:100450001B0180931A010EC082E090E090931B0173
:1004600080931A0107C081E090E090931B01809374
:100470001A01000080911A0190911B0181309105B1
:1004800031F08130910530F0029741F00BC01092AD
:10049000190108C080E18093190104C080E18093B4
:1004A0001901000000000F90DF91CF910895CF93C4
:1004B000DF93CDB7DEB766970FB6F894DEBF0FBEF9
:1004C000CDBF81E290E02FEFFC01208382E290E03B
:1004D0002FEFFC01208384E290E02FEFFC012083CA
:1004E00085E290E0FC01108281E090E0A0E0B0E0C5
:1004F000898B9A8BAB8BBC8B89899A89AB89BC8998
:10050000BC01CD010E9440010E9490001092210187
:100510001092200110921F0110921E0110921D01D5
:1005200010921C0181E090E090931B0180931A01CE
:100530008CE291E0A0E0B0E089839A83AB83BC8336
:1005400088EE93E0A0E0B0E08D839E83AF83B88710
:1005500082E090E0A0E0B0E089879A87AB87BC8713
:1005600089859A85AB85BC858D879E87AF87B88B3B
:100570001D8A1E8A80E290E0FC018081882F90E035
:100580008170992721E0892B09F020E02D8B80E2F2
:1005900090E0FC018081809582708E8B89819A81A8
:1005A000AB81BC818C329140A105B10550F10E9414
:1005B0006E0119821A821B821C828D89813059F446
:1005C00089859A85AB85BC850196A11DB11D89875A
:1005D0009A87AB87BC878E89823099F489859A8502
:1005E000AB85BC850297A105B10558F089859A8530
:1005F000AB85BC850197A109B10989879A87AB872B
:10060000BC878D819E81AF81B885883E9340A105CE
:10061000B10530F00E94AF011D821E821F82188634
:100620002D853E854F85588989859A85AB85BC8502
:10063000281739074A075B0730F00E9404021D861D
:100640001E861F86188A0E94DC010000809112011C
:100650008823E1F31092120129813A814B815C8158
:1006600089899A89AB89BC89820F931FA41FB51F02
:1006700089839A83AB83BC832D813E814F815885CA
:1006800089899A89AB89BC89820F931FA41FB51FE2
:100690008D839E83AF83B8872D853E854F8558898E
:1006A00089899A89AB89BC89820F931FA41FB51FC2
:0E06B0008D879E87AF87B88B5DCFF894FFCF04
:1006BE0000000002000000006700000000000100C2
:0206CE0000002A
:00000001FF
